:020000020000FC
:08040000010204081020400075
:0200380028C1DD
:02000000FFC03F
:100200000FEF0DBF0FE30EBF03E30093E50607E317
:100210000093E1060FEF009301070FEF0093210712
:1002200001E0009340040DE10093500401E00093CD
:10023000540400E30093520400E00093530400E9E7
:100240000093560400E000935704AFE3B0E901E0E7
:1002500009BFC0E0D0E300E00ABFE0E0F4E00591B0
:10026000003011F00993FBCF09E0009326080DE35D
:100270000093270801E00093060805E000930008BA
:1002800014D00093A2007894FFCF0F9300913F0009
:100290000F9301E000930C080991003031F00C93AA
:1002A0000F9100933F000F911895C0E0D0E300E05C
:0402B0000ABF0895E4
:00000001FF
